:020000040800F2
:10000000880D0020B5180008BD180008BF180008AA
:10001000C1180008C3180008C51800080000000037
:10002000000000000000000000000000C7180008E9
:10003000C918000800000000CB18000805310008AE
:10004000CF180008B9300008CF180008CF180008F2
:10005000CF180008CF180008CF180008CF180008E4
:10006000CF180008CF180008CF180008CF180008D4
:10007000CF180008CF180008CF180008CF180008C4
:10008000CF180008CF180008CF180008CF180008B4
:10009000751E0008CF180008CF180008CF180008F8
:1000A000CF180008CF180008CF180008CF18000894
:1000B000CF180008CF180008CF180008CF18000884
:1000C000CF180008CF180008CF180008CF18000874
:1000D000CF180008CF180008CF1800085B280008C8
:1000E000CF180008CF180008CF1800080000000043
:1000F0000000000000000000000000000000000000
:100100000000000000000000CF180008CF18000811
:10011000CF180008CF180008CF180008CF18000823
:10012000CF180008CF180008CF180008CF18000813
:10013000CF180008CF180008CF180008CF18000803
:10014000CF180008CF180008CF180008CF180008F3
:10015000DFF814D002F07EFF02F03AFF00480047BB
:100160007F1E0008AFF30080880D0020C54910B540
:10017000884202D1012144150AE0C349884202D1D4
:100180000121041504E0C14988420AD10121CC03B0
:10019000204601F0B8F82046BDE81040002101F0EB
:1001A000B2B810BD10B54268B94B0C791A400B6853
:1001B00042EA0422134343608368B64A1340D1E9FC
:1001C000024222434C7943EA44031A438260C26AE2
:1001D000097C22F47002491EC9B242EA0151C1628F
:1001E00010BD00210160017141718160C160012178
:1001F000017470470029816802D041F0010101E0DB
:1002000021F00101816070470029816802D041F42A
:10021000807101E021F4807181607047002A42689A
:10022000C9B201D00A4300E08A4342607047816846
:1002300041F0080181607047014600208968090784
:1002400000D501207047816841F00401816070474A
:10025000014600208968490700D501207047002920
:10026000816802D041F4A00101E021F4A001816085
:100270007047014600208968490200D50120704777
:100280004268491E22F4604242EA413141607047AF
:100290000029416802D041F4006101E021F40061CD
:1002A0004160704770B5072409290AD9C568A1F1D2
:1002B0000A0606EB4606B440A543B3401D43C5609D
:1002C00007E0056901EB4106B440A543B3401D4377
:1002D00005611F23072A09D2446B521E02EB8202DA
:1002E00093409C4391400C43446370BD0D2A09D256
:1002F000046BD21F02EB820293409C4391400C435B
:10030000046370BDC46A0D3A02EB820293409C43C1
:1003100091400C43C46270BD0029816802D041F451
:10032000801101E021F4801181607047C06C80B2BF
:10033000704754484C30006870470029416802D02B
:1003400041F4806101E021F480614160704700293F
:10035000416802D041F4805101E021F480514160B4
:100360007047826822F4E0420A43826070470029A5
:10037000816802D041F4004101E021F40041816034
:1003800070470029816802D041F4021101E021F494
:10039000021181607047014600208968890200D5FA
:1003A0000120704770B5072409290AD9C568A1F151
:1003B0000A0606EB4606B440A543B3401D43C5609C
:1003C00007E0056901EB4106B440A543B3401D4376
:1003D0000561836BC3F30154121B921C02EB820470
:1003E0001F22A2409343A1400B43836370BD826BE5
:1003F000491E22F4401242EA01518163704708B558
:1004000008440090026008BD08B5084428300090F8
:10041000006880B208BD42681F4B1A400A43426020
:100420007047416282627047426822F01F020A43AD
:1004300042607047134908310028086802D040F430
:10044000000001E020F40000086070470246002030
:1004500012680A4200D001207047C943016070470A
:1004600010B50246002054680B0AC9B20C4011684E
:10047000194202D0002C00D0012010BD6FEA1121DA
:10048000016070470024014000280140003C014009
:10049000FFFEF0FFFDF7F1FFFFFD3FFFFE4910B546
:1004A00088424FF0010101D14C0601E04FF0806419
:1004B000204600F031FF2046BDE81040002100F04A
:1004C0002BBF10B50368002223F00203036003680A
:1004D00043F0010303604FF6FF7300E0521C4468D1
:1004E000E40701D19A42F9D14268D2073ED08A7915
:1004F000012A02683CD022F080020260CA79012AF7
:10050000026838D022F0400202600A7A012A0268AA
:1005100034D022F0200202604A7A012A026830D0E8
:1005200022F0100202608A7A012A02682CD022F09E
:1005300008020260CA7A012A026828D022F0040266
:1005400002608A78CC78920742EA04620C7942EA27
:1005500004424C79098842EA0452491E0A43C261A6
:10056000016821F001010160002114E0002010BDAC
:1005700042F08002C1E742F04002C5E742F02002AB
:10058000C9E742F01002CDE742F00802D1E742F09D
:100590000402D5E7491C4268D20701D09942F9D13B
:1005A0004068C007E2D1012010BDF0B5827A012178
:1005B0009140BA4A136843F001031360B74B1C33F0
:1005C0001C688C431C60B54D067BB54C0C35A6B938
:1005D0002E688E432E604688C78846EA0746877A8B
:1005E00004EBC707C7F840660688878846EA0746CF
:1005F000877A04EBC707C7F84466067B012E12D141
:100600002E680E432E60867A056804EBC6064FEA14
:100610003545C6F84056867A456804EBC6044FEA6D
:100620003545C4F844569D4CC57A241D002D2568D7
:1006300006D00D432560994C0589143415B104E0AA
:100640008D43F7E725688D4325600589012D02D18B
:1006500025680D432560407B012802D118680843B6
:100660001860106820F001001060F0BD0021817159
:10067000C171017241728172C1728170C1700321B6
:1006800001710221417101210180704783490A688B
:1006900042F001020A600A6843F60E739A430A6048
:1006A0000A6842EA00200860086820F0010008603B
:1006B00070470029016802D041F4803101E021F443
:1006C0008031016070470029016813D041F080013A
:1006D0000160D0F8841141F48071C0F88411D0F821
:1006E000941141F48071C0F89411D0F8A41141F430
:1006F000807112E021F080010160D0F8841121F4B2
:100700008071C0F88411D0F8941121F48071C0F880
:100710009411D0F8A41121F48071C0F8A41170478D
:1007200030B50246002093685B0108D49068000150
:1007300001D5012003E09068C00044D5022002EBFF
:100740000012D2F8803103F00103C2F880310B7A35
:10075000C3B3D2F880414D681C434B7A43EAC503CA
:100760001C43C2F880418B7A03F00F038B72D2F8DE
:10077000843123F00F03C2F88431D2F884318C7AAB
:100780002343C2F88431CB7A8C7B0D7B43EA04632C
:100790004C7B240444EA05242343C2F88831CB7BF4
:1007A0008C7C43EA04634C7C097C240444EA0121E8
:1007B0000B43C2F88C31D2F8801141F00101C2F82C
:1007C000801130BD01E00420FBE7D2F880314C7A83
:1007D00023430C8843EA4453C2F88031C3E7002224
:1007E00021B1012905D0022906D112E082682D48E5
:1007F00001E082682C4802402C49501A8A4214D0E9
:100800000ADCA2B16FF0806010180FD002280CD162
:100810000FE082682648EEE7B0F5007F09D0254951
:10082000401803D0B0F5003F03D0002070470220ED
:1008300070470120704741B101290AD0022903D134
:10084000816841F4000181607047816841F0800156
:10085000F9E7816841F40041F5E710B500EB0113B9
:10086000D3F8B04114F004041472D3F8B04144D06A
:10087000E4085460D3F8B04104F002045472D3F891
:10088000B44104F00F049472D3F8B441240AD47430
:10089000D3F8B841D4720FE0006400400066004015
:1008A000006000400300000400030008000100088D
:1008B000000003100001FFF7D3F8B841240A1473B5
:1008C000D3F8B841240C5473D3F8B841240E947370
:1008D000D3F8BC41D473D3F8BC41240A1474D3F8C0
:1008E000BC41240C5474D3F8BC311B0E937439B141
:1008F000016941F02001016110BD640D1460B9E788
:10090000C16841F02001C16010BD21B1016941F011
:10091000200101617047C16841F02001C16070474A
:100920000246002029B1012902D1106900F003001C
:100930007047D068FAE700234FF6FF7221B1012912
:1009400017D0022924D03AE0016821F0020141F0D9
:100950000101016000E0521E416801F0030101291C
:1009600001D0002AF7D1406800F00300012823D10C
:1009700024E0016821F00301016000E0521E41689B
:10098000890701D0002AF9D14068800714D115E009
:10099000016821F0010141F00201016000E0521EF6
:1009A000416801F00301022901D0002AF7D1406813
:1009B00000F00300022801D0002300E001231846C4
:1009C00070470268002122F0010242F00202026038
:1009D000406800F00300022800D10121084670475A
:1009E00003684FF6FF71002223F00203036000E06A
:1009F000491E43689B0701D50029F9D1406880074B
:100A000000D40122104670478069C0F30210000133
:100A100070478069000E70478069C0F307407047D7
:100A2000002A426901D00A4300E08A4342617047CC
:100A30000246002011F4700F03D0926904E00120F7
:100A40007047CB0104D552680A401103F7D17047B3
:100A50000B0101D59268F7E78B0101D5D268F3E766
:100A60001269F1E7534A914202D100218161704736
:100A7000C1F313028B0101D5C26070474B0101D550
:100A800002617047090101D582607047426070477A
:100A90000246002053690B424AD0B1F5807F3BD01B
:100AA00013DC08292ED007DC012926D0022927D003
:100AB00004293DD1D0682BE0102925D0202926D04B
:100AC000402935D11069102130E0B1F5004F2BD00D
:100AD0000BDCB1F5007F22D0B1F5806F22D0B1F5EB
:100AE000006F25D19069702120E0B1F5803F11D0D1
:100AF000B1F5003F1CD15068E5E790682E4915E03C
:100B0000D06802E0D068DEE7106903210EE01069CA
:100B100008210BE05068FBE79069012106E090692D
:100B2000022103E0906900E05068042100F03BB826
:100B3000704730B5082310240422B1F5007F1DD082
:100B400010DC202929D007DC012921D0042922D05A
:100B5000082900D1C46034E6402920D0B1F5807F57
:100B6000F9D10BE00025B1F5004F06D008DCB1F556
:100B7000806F03D0B1F5006FEDD18561426020E652
:100B8000B1F5803F0DD0B1F5003FE4D1446018E6E7
:100B90000949816015E6C36013E6036111E604614B
:100BA0000FE643600DE6024600200A4200D0012015
:100BB000704700007000F0300101010001684FF63D
:100BC000FE72114001600021016041608160C160DE
:100BD0006A496A4A0839904203D1486840F00F00D8
:100BE00006E0664A1432904204D1486840F0F000B2
:100BF00048607047614A2832904203D1486840F407
:100C00007060F5E75D4A3C32904203D1486840F499
:100C10007040EDE7594A5032904203D1486840F4A1
:100C20007020E5E7554A6432904203D1486840F4A9
:100C30007000DDE7514A7832904203D1486840F0B5
:100C40007060D5E74E4A111F904203D1086840F00A
:100C50000F0006E04A4A1432904204D1086840F07E
:100C6000F00008607047464A2832904203D1086875
:100C700040F47060F5E7424A3C32904203D1086884
:100C800040F47040EDE73E4A50329042EAD10868A5
:100C900040F47020E5E730B5036847F6F0729343FF
:100CA0000C6A8A682243D1E904452C4322438C69AB
:100CB0002243CC6922434C6A22438C6A22431A4362
:100CC0000260CA6842600A6882604968C16030BDDB
:100CD0000021016041608160C16001614161816109
:100CE000C16101624162816270470029016802D0DE
:100CF00041F0010102E04FF6FE72114001607047C1
:100D0000002A026801D00A4300E08A43026070476B
:100D100041607047406880B2704701460020CA00B9
:100D200002D5174A083A01E0144A083A12680A4202
:100D300000D001207047C10003D51149091F086088
:100D400070470E4908394860704701460020CA00C4
:100D500002D50B4A083A01E0084A083A12680A42EA
:100D600000D001207047C10003D50549091F086064
:100D70007047024908394860704700000800024087
:100D800008040240914910B5884206D1012104208F
:100D900000F0B9FA002104203BE08D49884206D1D9
:100DA0000121082000F0AFFA0021082031E0894934
:100DB000884206D10121102000F0A5FA0021102060
:100DC00027E08549884206D10121202000F09BFAC6
:100DD000002120201DE08149884206D101214020C8
:100DE00000F091FA0021402013E07D49884206D1AD
:100DF0000121802000F087FA0021802009E0794954
:100E000088420AD184150121204600F07CFA002195
:100E10002046BDE8104000F076BA10BD10B50121A3
:100E2000084600F070FA0021BDE81040012000F0F3
:100E30006ABAF0B5CA78002502F00F03D20601D5D0
:100E40008A7813430A784FF00F0E12F0FF0F4FF01D
:100E500001021DD0D0F800400F8802FA05F6374095
:100E6000B74211D14FEA850C0EFA0CF724EA0707B6
:100E700003FA0CF43C43CF78282F02D0482F02D03D
:100E800002E0466100E006616D1C082DE4D30460B9
:100E90000C88FF2C1ED944685FF0000606F1080795
:100EA00002FA07F50F882F40AF420FD14FEA860CA8
:100EB0000EFA0CF7BC4303FA0CF73C43CF78282F0B
:100EC00000D14561CF78482F00D10561761C082EEE
:100ED000E4D34460F0BD4FF6FF71018002218170C0
:100EE0000421C17070470246002092680A4200D077
:100EF00001207047806880B2704702460020D268A7
:100F00000A4200D001207047C06880B2704701617A
:100F10007047416170470AB1016170474161704794
:100F2000C160704741F48032826181618261816970
:100F3000806970472C4B10B51A684FF680742240B8
:100F400042EA00100843186010BD2849C861704784
:100F5000F0B5254C002801DAE36900E06368420D32
:100F6000120185B2C0F301579540C0F30346032F29
:100F700005D0C2020AD50322B240934307E023F012
:100F80007062636823F07063636002E0AB4343F018
:100F9000706201B12A43002801DAE261F0BD6260AB
:100FA000F0BD10B58A0721F003040F49130F214447
:100FB0000F228C689A4094438C608A689840024360
:100FC0008A6010BD0949C1F8DC0070470008014083
:100FD000000C0140001001400014014000180140C5
:100FE000001C0140002001400000014000002042A0
:100FF0000D49086070470C49486070470A4988608D
:10100000704709494AF6AA200860704706494CF61D
:10101000CC4008607047044A01460020D2680A426A
:1010200000D001207047000000300040CC4801682B
:1010300041F0010101604168CA4A11404160016804
:10104000C94A11400160016821F4802101604168B2
:1010500021F4FE014160016821F0A05101604FF4CC
:101060007F0181600021C1627047BD490A6822F496
:1010700080320A600A6822F480220A60B0F5803F5C
:1010800007D0B0F5802F03D1086840F4A020086095
:101090007047086840F48030F9E7024600205309A1
:1010A000AF49012B0AD0022B0AD0496A02F01F0275
:1010B000012393400B4200D0012070470968F5E7F7
:1010C000096AF3E718B500204FF4A06400903120BE
:1010D000FFF7E3FF0099491C0091A14201D00028CD
:1010E000F5D03120FFF7D9FF002800D0012018BD2E
:1010F0009B490A6822F0F80242EAC0000860704783
:101100009A4908607047964A5368084323F4741359
:10111000184350607047954908667047904B10B56A
:10112000DA6A934C084322401043D86210BD8C4ABF
:10113000D16A21F0F0010143D1627047884AD16A37
:1011400021F470610143D162704788498866704715
:10115000834AD16A21F470410143D16270478349C7
:10116000086770477E4A516821F0030101435160CE
:1011700070477B48406800F00C007047784A51681F
:1011800021F0F001014351607047754A516821F424
:10119000E06101435160704771494A6822F460522E
:1011A00042EAC000486070476D4A0029517A01D078
:1011B000014300E08143517270476C49C1F8D80087
:1011C0007047674A516821F44041014351607047BC
:1011D0006849086070476749091D086070476049A1
:1011E000002281F8202081F82020012802D0042844
:1011F00002D1052081F8200070475F4908607047E0
:1012000057490A6A02430A6270475B4944390860D9
:101210007047F0B5524A5168584B11F00C014FF02D
:101220000F0503D0042901D0082901D0036026E06E
:101230005168546805EA914104F480340D2901D0C5
:10124000891C00E00621BCB1D46A14F4803FD46A42
:1012500004F00F0404F101040AD0D66AD76AC6F379
:101260000316761CB3FBF6F3C7F30327BF1C7B43BF
:10127000B3FBF4F34B43D9E7414B59430160516849
:10128000404C05EA1111635C0168D9404160536824
:10129000072505EA1323E35C21FA03F3836053680F
:1012A00005EAD323E35CD940C1605268032303EA13
:1012B0009232231F9A5CB1FBF2F10161F0BD284A22
:1012C0000029516901D0014300E081435161704719
:1012D000234A0029916901D0014300E081439161D3
:1012E00070471F4A0029D16901D0014300E08143C2
:1012F000D16170471A4A0029916A01D0014300E088
:10130000814391627047164A0029D16801D0014398
:1013100000E08143D1607047114A0029116901D072
:10132000014300E08143116170471349403908606F
:1013300070470E49C86470470949C871704708482A
:10134000416A41F0807141627047054A01460020C0
:1013500092680A4200D001207047014988727047A4
:10136000001002400000FFF0FFFFF6FE00004242C6
:10137000F0FFFEFFC40542428004424200127A00A0
:1013800000093D0004000020FC4A116801F038010A
:10139000014311607047F9490A6822F008020A60A7
:1013A0000A6802430A607047F4490A6822F0100292
:1013B0000A600A6802430A607047F048F0494160D9
:1013C000F04941607047ED48ED494160ED494160A9
:1013D0007047EA48016941F0800101617047E748C0
:1013E000016941F0800101617047E4490420CA6845
:1013F000D20701D001207047CA68520701D50220E8
:101400007047C968C906FBD50320704700B503467D
:10141000FFF7EBFF03E000BFFFF7E7FF5B1E0128CC
:1014200003D0002B00D1052000BD002BF4D1FAE73A
:1014300070B505464FF430263046FFF7E7FF042825
:1014400011D1CE4C206940F0020020616561206915
:1014500040F0400020613046FFF7D8FF216941F697
:10146000FD721140216170BD30B54FF43025284622
:10147000FFF7CCFF042810D1C04C206940F00400D5
:101480002061206940F0400020612846FFF7BEFF40
:10149000216941F6FB721140216130BD00B5034660
:1014A000FFF7A3FF03E000BFFFF79FFF5B1E0128CC
:1014B00003D0002B00D1052000BD002BF4D1FAE7AA
:1014C00030B54FF430252846FFF7E8FF042810D147
:1014D000AA4C206940F004002061206940F04000DF
:1014E00020612846FFF7DAFF216941F6FB721140BF
:1014F000216130BDA1490020C969890700D50120BB
:10150000704770B5A525FFF7F5FF00B100254FF432
:1015100030263046FFF77AFF042827D1974C9848A9
:10152000A0609848A060206940F0200020612069F8
:1015300040F0400020613046FFF768FF41F6EF764B
:1015400004280ED1206941F6DF710840206120692E
:1015500040F0100020618C4805804FF40050FFF7E8
:1015600055FF052802D021693140216170BDF8B5D1
:10157000064600204FF4005C00900D466046FFF7E1
:1015800045FF042816D17D4C206940F00100206100
:1015900035806046FFF73AFF41F6FE77042806D112
:1015A000B61C280C009630806046FFF72FFF21699B
:1015B00039402161F8BDF0B506464FF400570D469D
:1015C0003846FFF723FF04280CD16C4C206940F00B
:1015D0000100206135803846FFF718FF2169BA1EE7
:1015E00011402161F0BDF0B506464FF400570D469D
:1015F0003846FFF70BFF042813D1604C6048A06009
:101600006048A060206940F01000206135803846B5
:10161000FFF7FCFE052804D0216941F6EF72114066
:101620002161F0BD2DE9F041C04300F0FF0CC0F393
:101630000727C0F30746050E4FF400584046FFF752
:10164000E5FE042837D14D4C4D49A1604D49A160BC
:10165000216941F010012161BCF1FF0F08D04A4817
:101660000830A0F800C04046FFF7D0FE04281BD188
:10167000FF2F07D044480A3007804046FFF7C6FED8
:10168000042811D1FF2E07D03F480C300680404679
:10169000FFF7BCFE042807D1FF2D07D03A480E30D3
:1016A00005804046FFF7B2FE052804D0216941F6C7
:1016B000EF7211402161BDE8F08170B505464FF42D
:1016C00030263046FFF7A2FE042818D12B4C2C48B8
:1016D000A0602C48A060206940F0200020612069B3
:1016E00040F0400020613046FFF790FE41F6DF7188
:1016F000042805D0052802D022690A40226170BD65
:10170000206908402061206940F0100020611E48D7
:101710000DB1002100E0A52101803046FFF776FEE3
:101720000528ECD0216941F6EF721140216170BDAE
:10173000F0B5124C0746124816460D46A0601148F7
:10174000A0604FF4005C6046FFF760FE042814D1EF
:10175000206940F01000206135430B493D43891C4E
:1017600045F0F80008806046FFF750FE052804D0D9
:10177000216941F6EF7211402161F0BD0020024065
:1017800023016745AB89EFCD00F8FF1F1C48C069F6
:10179000800870471A48006A704719490020096894
:1017A000890600D501207047154A0029116901D02A
:1017B000014300E081431161704701460020104A57
:1017C000012903D0D2680A4203D17047D169C90701
:1017D000FBD0012070470A49C860704708490420BF
:1017E000CA68D20701D001207047CA68520701D5E4
:1017F00002207047C968C906FBD503207047000066
:10180000002002402849084328490860704770B505
:101810000F23C47801780122F4B1244C2468457860
:1018200004F4E064C4F5E064240AC4F10406E3406F
:101830008478B5401C402C4301F1E021230181F85C
:101840000034007800F01F018A404009800000F158
:10185000E020C0F8002170BD01F01F00824048095F
:10186000800000F1E020C0F8802170BD104A1140D6
:1018700001430E48001F016070470C4A121D0029E9
:10188000116801D0014300E08143116070474FF0BF
:10189000E0210428086903D020F0040008617047A3
:1018A00040F00400FAE700000000FA050CED00E04B
:1018B00080FFFF1F0648804706480047FEE7FEE717
:1018C000FEE7FEE7FEE7FEE7FEE7FEE7FEE7FEE7F0
:1018D00079190008510100080CB500213248019126
:1018E0000091026842F4803202604FF4A063026803
:1018F00002F400320092019A521C0192009A12B92D
:10190000019A9A42F3D10268920333D501210091E2
:1019100026490A6842F010020A600A6822F00302AF
:101920000A600A6842F002020A6041684160416848
:101930004160416841F480614160416821F47C115B
:101940004160416841F4E8114160016841F08071F3
:10195000016001688901FCD5416821F00301416003
:10196000416841F0020141604168C1F381010229EF
:10197000FAD10CBD0091FEE70B48016841F001016E
:10198000016041680A4A114041600168094A1140FA
:101990000160016821F480210160416821F4FE01A9
:1019A00041600021816097E7001002400020024062
:1019B0000000FFF8FFFFF6FE10B501210C072046DE
:1019C000FFF7AAFC2046BDE810400021FFF7A4BCA9
:1019D0002149086270472049086170471F4A116811
:1019E00021F0E0010143116070471B49C1F8A000DC
:1019F00070471A4B1A6822F0030202431A60184813
:101A0000026842F004020260012905D020BF01688B
:101A100021F004010160704730BFF8E70F4801680A
:101A200041F004010160016841F0020101600C48CD
:101A3000016841F00401016030BF7047074A014668
:101A4000002052680A4200D00120704703490A680A
:101A500042EA80000860704700000E4200700040BB
:101A600010ED00E0374900200860091D0860091DDD
:101A70000860091D08603349334814310860704715
:101A800030B530498379026853B30B6893430B60D8
:101A90000A1D13680468A343136002790A4413689B
:101AA000046823431360274A083213680468A34379
:101AB0001360131D1C680568AC431C604479102C2E
:101AC00005D021440A68006802430A6030BD1168ED
:101AD000046821431160196800680143196030BD32
:101AE0000079084401689143016030BD0021016024
:101AF00001710C22427181717047124910310A68DC
:101B000002430A60704701460E4A002014321268F0
:101B10000A4200D0012070470A491431086070471A
:101B2000084A014600201268064B0A4014331B681D
:101B30000B4202D0002A00D0012070470149143125
:101B40000860704700040140FFFF0F00C44910B552
:101B500088420AD101218C032046FFF7D4FB20469E
:101B6000BDE810400021FFF7CEBBBE49884202D13C
:101B700001214C0410E0BC49884202D101218C04AF
:101B80000AE0BA49884202D10121CC0404E0B849F4
:101B900088420AD101210C052046FFF7BDFB2046F3
:101BA000BDE810400021FFF7B7BB10BD30B50446BB
:101BB000008A85B00D464CF6FF710840E988014364
:101BC0002182A1894EF6F3100140A8882A8910438A
:101BD0006A890A431043A081A08A4FF6FF4108405A
:101BE000A9890143A1826846FFF713FB9C48844200
:101BF00001D1039800E00298A189090400EBC0011B
:101C000001EB0010296801D5490000E08900B0FB14
:101C1000F1F06422B0FBF2F109010B096FF0180535
:101C20006B4300EB8300A3891D044FF0320306D5FC
:101C300003EBC000B0FBF2F000F0070005E003EB9F
:101C40000010B0FBF2F000F00F000843208105B057
:101C500030BD4FF41651016000218180C1800181A7
:101C60000C2242818181704710B5038A4FF2FF0236
:101C700013400A884C8822438C88C9880C4322432D
:101C80001A43028210BD0021018041808180C18001
:101C900070470029818902D041F4005101E021F40C
:101CA00000518181704710B5C1F3421301F01F0448
:101CB0000121A140012B07D0022B07D01430002AAC
:101CC000026805D00A4304E00C30F8E71030F6E76C
:101CD0008A43026010BD002A828A01D00A4300E0D4
:101CE0008A4382827047028A22F00F020282028AAD
:101CF0000A4302827047828922F4006282818289CB
:101D00000A43828170470029818902D041F0020193
:101D100001E021F0020181817047028A22F0200255
:101D20000282028A0A43028270470029018A02D095
:101D300041F4804101E021F4804101827047C1F308
:101D40000801818070478088C0F30800704781894E
:101D500041F0010181817047028BD2B20283028B74
:101D600042EA012101837047028B02F47F42028321
:101D7000028B0A43028370470029818A02D041F016
:101D8000200101E021F02001818270470029818A31
:101D900002D041F0100101E021F010018182704772
:101DA0000029818A02D041F0080101E021F00801F8
:101DB000818270470029818902D041F4004101E00D
:101DC000C1F30E01818170470029818A02D041F45C
:101DD000006101E021F4006181827047828A22F073
:101DE00004028282828A0A43828270470029818AA1
:101DF00002D041F0020101E021F00201818270472E
:101E00000246002012880A4200D001207047C943D0
:101E10000180704730B501F01F0201240025C1F395
:101E2000421304FA02F2012B0FD0022B0FD0838A47
:101E30004FEA11210088134204FA01F400EA040079
:101E400001D000B10125284630BD8389F0E7038A1F
:101E5000EEE70A0A01219140C94301807047000062
:101E6000003801400044004000480040004C004061
:101E700000500040002201214F4802F003B90EB586
:101E80004F4D4E482860FFF777FD01F04FF9684647
:101E900001F02AFC684601F01BFC01A801F024FCBB
:101EA00001A801F015FC02A801F01EFC02A801F037
:101EB0000FFC444802F0AEFA434C0020207000F0C2
:101EC00013FC00F003FD414E414F3B4801F040FD43
:101ED0003C483C3800F0BBFB684601F001FC0A2896
:101EE00029D3684601F0ECFB30783870354802F0B1
:101EF00071FA00F0F4F82078802818D13878317819
:101F0000884201D000F04AF8286843F28121B0F9F4
:101F1000020088420BD1002001F054F929688C227C
:101F20000020091D01F05CF901F08AF9EAE7254873
:101F30003C3800F00DFA2078802811D102A801F079
:101F4000CFFB2449884208D31E483C3800F09AFB56
:101F500002A801F0B5FB01F04FFB20788028B4D037
:101F600001A801F0BDFB1C498842AED301A801F0D5
:101F7000A7FB8020207029688C220020091D01F019
:101F8000F5F810483C3800F0BFF840F6B83001F0E2
:101F900035FB9AE70B48343801F0A6BBBFF34F8FEF
:101FA0000E4801680E4A01F4E06111430160BFF37D
:101FB0004F8F00BFFDE70000E80500202C02002045
:101FC000F40000205401002014000020F000002044
:101FD00012010020A0860100E09304000CED00E057
:101FE0000400FA0570B50146F948FA4D112941D2AD
:101FF000DFE801F0091416181A1C1E202224272AD3
:102000002D30333639004FF6FF742146FEF781FF3D
:1020100021462846BDE87040FEF77BBF012125E040
:10202000022123E0042121E008211FE010211DE00E
:1020300020211BE0402119E0802117E04FF480713E
:1020400013E04FF4007110E04FF480610DE04FF4A5
:1020500000610AE04FF4805107E04FF4005104E0C2
:102060004FF4804101E04FF400412846BDE8704044
:10207000FEF74DBF70BD70B502460C460025012627
:102080000421D54802F042F92A460521D24802F03F
:102090003DF922460621D04802F038F93246BDE823
:1020A00070400721CC4802F031B970B515460246A0
:1020B0000C4601260421C84802F028F922460521D1
:1020C000C54802F023F92A460621C34802F01EF94A
:1020D0003246BDE870400721BF4802F017B9BF4A39
:1020E00011461078897858B101280BD0022809D000
:1020F000032801D0042806D153780A461946D4E7AC
:1021000008466FE7B7E770472DE9F04F0546B2483C
:1021100091B0A22101703D214171012646700D212F
:1021200081700221C1700821017131463420FFF70E
:10213000CFF84FF47F49ADF800904820DFF890A227
:102140008DF8030069465046FEF773FE4FF4F860C1
:10215000ADF800006946A248FEF76BFE4FF4E06060
:10216000ADF8000069469F48FEF763FE9D480C30BD
:1021700001680024046001216020FFF7A9F84FF0F6
:10218000FF08ADF8008010208DF8030003278DF8BC
:10219000027069465046FEF74CFE4FF6FF7B5946EB
:1021A0005046FEF7B6FEADF80090DFF8289269467B
:1021B0004846FEF73EFE59464846FEF7AAFE012174
:1021C0001C20FFF785F8ADF800808DF803406946C4
:1021D0008448FEF72EFEADF8007069468248FEF78F
:1021E00028FEADF8007069467D48FEF722FE012109
:1021F0000846FFF764F801214802FFF769F8DFF8A5
:10220000EC814046FEF7DAFC79480190794802A952
:102210000C2781E891008020CDE90540400007901F
:1022200080000890202009900002CDE90A0401A94D
:102230004046FEF730FD01214046FEF756FD4FF4C3
:102240006020CDE90E040C94694C8DF834604C3C50
:102250008DF835608DF840700CA92046FDF7A2FF7F
:102260003803FEF7AEFF0523012200212046FEF7CA
:1022700019F80523022201212046FEF713F8052351
:10228000032202212046FEF70DF805230422032134
:102290002046FEF707F805231A4604212046FEF7DC
:1022A00001F80523062219462046FDF7FBFF05230A
:1022B000072206212046FDF7F5FF05230822072106
:1022C0002046FDF7EFFF0523092208212046FDF7F0
:1022D000E9FF05230A2209212046FDF7E3FF052334
:1022E0000B220A212046FDF7DDFF05230C220B21DE
:1022F0002046FDF7D7FF01212046FDF785FF01218C
:102300002046FDF777FF2046FDF791FF2046FDF7B9
:1023100093FF0028FAD12046FDF795FF2046FDF7F0
:1023200097FF0028FAD101212046FDF798FF2A489F
:1023300001F08EFC05F1080001F0CAF92E48006892
:10234000C089A8807F20287011B00120BDE8F08FDF
:1023500070B500787F2817D127480068B0F90000D1
:10236000A0F548515B390FD06FF4A0711A4801F005
:10237000C1F9174C083420684FF00001C005164819
:1023800004D401F0E7FF03E0002070BD01F0F8FF86
:1023900020684FF0010180050F4802D401F0DAFFF8
:1023A00001E001F0EDFF20684FF0020140050A480E
:1023B00002D401F0CFFF01E001F0E2FF20684FF00E
:1023C00003010005044819D401F0C4FF18E000001F
:1023D0000014014000180140E8050020E900002039
:1023E0000010014000080140000C014008000240BC
:1023F0004C24014090010020F400002001F0C0FFB7
:1024000020684FF00401C004AD4802D401F0A2FFDF
:1024100001E001F0B5FF20684FF005018004A848F5
:1024200002D401F097FF01E001F0AAFF20684FF00D
:1024300006014004A24802D401F08CFF01E001F043
:102440009FFF20684FF0070100049D4802D401F06F
:1024500081FF01E001F094FF9A4CA0684FF0080161
:102460004006974802D401F075FF01E001F088FFB3
:10247000A0684FF009010006914802D401F06AFFFC
:1024800001E001F07DFFA0684FF00A01C0058C4813
:1024900002D401F05FFF01E001F072FFA0684FF08D
:1024A0000B018005864802D401F054FF01E001F0E1
:1024B00067FF854C20684FF00C01C005804802D4AE
:1024C00001F048FF01E001F05BFF20684FF00D01D3
:1024D00080057B4802D401F03DFF01E001F050FF90
:1024E00020684FF00E014005754802D401F032FF1C
:1024F00001E001F045FF754E754C3178322924D248
:10250000228804F1300003881A44228062884388BC
:102510001A446280A28883881A44A280E288C38811
:102520001A44E280228903891A44228162894389FC
:102530001A446281A28983891A44A281E289C089EE
:102540001044E081491C31707DE0208940F6E4416F
:1025500048434FF44835B0FBF5F002B20421584827
:1025600001F0D4FE608940F6E4414843B0FBF5F049
:1025700002B20521524801F0C9FEA08940F6E441AB
:102580004843B0FBF5F002B206214D4801F0BEFE13
:10259000E08940F6E4414843B0FBF5F002B2072180
:1025A000474801F0B3FE4A48FF21183001802188D6
:1025B00040F6E4425143B1FBF5F14180618851435B
:1025C000B1FBF5F18180A1885143B1FBF5F1C180E8
:1025D000E1885143B1FBF5F10181EE2141810146D2
:1025E00006223C4800F0F0F80021354801F0A0FE3A
:1025F00030B10021324801F09BFE012803D004E0F5
:1026000000F065FC01E000F0F9F900212C4801F030
:102610008FFE022804D13048007808B900F0C0FBD2
:102620000021274801F084FE032803D10F2124480C
:1026300001F090FE002131704FEA010024F81010E3
:10264000401C0828FADBFFF74AFD012070BD10B5D9
:1026500001787F2914D121490968B1F90010A1F549
:1026600048525B3A0CD00830044601F039F84CF27D
:102670005031884202D9204601F022F8012010BDD5
:10268000002010BD00787F2810D114480068B0F9F0
:102690000000A0F548515B3908D01148017861B1BC
:1026A000491CC9B20170082902D006E00020704719
:1026B000002101700B4901200870012070470000C3
:1026C000E805002000100140080801401500002026
:1026D0006001002000480040ED000020F4000020D0
:1026E000EF000020EE00002070B586B00121082028
:1026F000FEF7EEFD01218804FEF7F3FD4FF480653F
:10270000ADF8105018208DF8130003206C4C8DF894
:10271000120004A92046FEF78CFBE014ADF810006F
:1027200004208DF8130004A92046FEF782FB002444
:102730004FF416500090ADF808400C20614EADF8F3
:102740000440ADF80A00ADF80640ADF80C4069460B
:102750003046FFF72BFA2846FFF754F827208DF86C
:1027600014008DF815408DF8164001208DF81700E3
:1027700005A8FFF74CF8012240F225513046FFF73B
:1027800092FA01213046FFF784FA06B070BD10B509
:102790000446FFF7D4FA80212046FFF731FB0028DA
:1027A000F9D010BD70B50A0ACCB205461146FFF744
:1027B000C6FA21462846FFF7C2FA80212846FFF7CD
:1027C0001FFB0028F9D070BD2DE9F04115460E46DB
:1027D000074600240DE000BF36F814103846FFF716
:1027E000AEFA40213846FFF70BFB0028F9D0641CF5
:1027F000E4B2AC42F0D3BDE8F08170B50D460646B8
:1028000000243046295DFFF79AFA40213046FFF751
:10281000F7FA0028F9D0641CE4B2285D0028F0D152
:1028200070BD70B5274D0446C1B22846FFF787FA40
:1028300080212846FFF7E4FA0028F9D0204670BD31
:1028400010B5204C20212046FFF7DAFA0028F9D0F5
:102850002046BDE81040FFF776BA70B5194C40F23B
:10286000255529462046FFF7CBFA002827D02046D9
:10287000FFF769FA144AC1B200209678012326B105
:10288000012E07D0022E14D10FE0FF2910D1937032
:1028900050700EE00C4B5078DB1C1954401CC0B239
:1028A0005070032805D3022002E0EE2901D11370F5
:1028B000907029462046BDE87040FFF7CABA70BD47
:1028C000000C014000480040E6000020F0B58DB04B
:1028D00000208DF8000001226946022000F046FC2D
:1028E0009DF80010F3A001F0B5FDF7499DF8000038
:1028F00001F10C0401F11C0501F12C06142856D03D
:10290000F2480DF1040C8EC88CE88E008EC80DF1D3
:10291000140C8CE88E000FC809AF87E80F00032065
:1029200000F050FC102201A9032000F059FC00F037
:1029300087FC042000F046FC102205A9042000F0CA
:102940004FFC00F07DFC052000F03CFC102209A9A2
:10295000052000F045FC00F073FC14208DF8000009
:10296000022000F02FFC01226946022000F038FC12
:1029700000F066FC01226946022000F0F7FB1022FD
:102980002146032000F0F2FB10222946042000F02B
:10299000EDFB10223146052000F0E8FB9DF8000019
:1029A000142802D1CAA001F055FD0DB0F0BD1022CF
:1029B0002146032000F0DAFB10222946042000F013
:1029C000D5FB10223146052000F0D0FBBE4E00247E
:1029D00006EB44052146AA89C2A001F03BFDAA8B63
:1029E0002146C5A001F036FDB5F92C202146C7A02F
:1029F00001F030FD641C082CEADBD6E72DE9F05F1E
:102A00000021C84801F094FC01287DD1C64C94F9FE
:102A10000000401C03D12070C4A001F01BFD94F9FC
:102A20000030072B70D2A078C44DC54E002841D18C
:102A3000C44F4FF0010917F8131006EBC10C9CF9B5
:102A40000600421C37D09CF90720B2F1FF3F32D07C
:102A500007EB4303DFF8F0825B78DFF86CE24FF4BA
:102A6000483A012B7BD0022B4ED138F81230C346A6
:102A700040F6E4477B43B3FBFAF30EEB4008B8F8AB
:102A80001E80434569D3AF4F072967D09CF80500E6
:102A900005EBC00155F830008988FEF738FA94F943
:102AA000000017F8100006EBC00041799D48103176
:102AB00001F066FC42E0E078002825D107EB4300F6
:102AC00056F831104278A1A001F0C4FC94F900003E
:102AD00007EB40014978012902D0022915D02BE0EB
:102AE00017F8100006EBC000007905EBC00155F89F
:102AF00030008988FEF70BFA94F9000017F81000EF
:102B000006EBC000017913E08EE017F8100006EB29
:102B1000C000407905EBC00155F830008988FEF708
:102B2000F6F994F9000017F8100006EBC00041799F
:102B30007C48103101F024FC84F80390A07801282F
:102B400072D1804F94F9000007EB400149780129C8
:102B500053D0022972D08AE001E03CE033E038F83B
:102B60001230C34640F6E4477B43B3FBFAF30EEB67
:102B70004008B8F80C8043451CD8724F072911D083
:102B80009CF8040005EBC00155F83000898800BFAF
:102B9000FEF7BDF994F9000017F8100006EBC0002D
:102BA000017983E7A9882868FEF7B1F9B5F87410B0
:102BB000286FEDE73BF8121040F6E4425143B1FBB9
:102BC000FAF3401C0FE0A989A868FEF7A0F9B5F850
:102BD0007C10A86FDCE73BF8121040F6E44251434A
:102BE000B1FBFAF3801C0EEB4000428B41895DA0E3
:102BF00001F030FC84F80290A3E717F810000728D2
:102C000014D006EBC000007905EBC00155F8300088
:102C1000898800BFFEF77DF994F9000017F81000CD
:102C200006EBC00001791EE042E007E0A9882868B1
:102C3000FEF76FF9B5F87410286FEBE717F810007E
:102C400007282DD006EBC000407905EBC00155F8F0
:102C500030008988FEF75DF994F9000017F810003C
:102C600006EBC00041792F48103101F089FB0020AC
:102C7000A07094F9000007EB400117F810004A78A3
:102C800056F830103EA001F0E5FB2078401C40B221
:102C9000207007280CD1BDE8F05F3DA001F0DABB41
:102CA000A989A868FEF735F9B5F87C10A86FB1E7D7
:102CB000BDE8F09F7772697465666C6167203D209E
:102CC000307825780A0000001801002068470008C5
:102CD000CAFDBEDDD0B4BDF8C1CB666C6173680AB5
:102CE000000000006063494F2E4D61785B25645DF4
:102CF000203D2025640A00006063494F2E4D696E17
:102D00005B25645D203D2025640A00006063494F17
:102D10002E537465705B25645D203D2025640A0A8E
:102D200000000000E8050020EC000020BDF8C8EB22
:102D3000D7D4B6AFC4A3CABD0A0000001800002053
:102D400098000020D8000020600100202D2D2DCEFD
:102D5000DEB2CEB6AFD7F7A3BA25732025642D2DEA
:102D60002D0A00004D41583A256420204D494E3A25
:102D70002564202076616C3A256420200A0000003A
:102D8000CDEAB3C9B6AFD7F73A25732025640A0058
:102D9000D7D4B6AFC4A3CABDBDE1CAF80A000000CB
:102DA0002DE9F0415D4D0024671CB9B25C4801F08B
:102DB000BFFA05EB8406B9B2B081594801F0B8FA00
:102DC000F081671DB9B2564801F0B2FAB083B9B2CA
:102DD000534801F0ADFAF0833F1DB9B2504801F0FD
:102DE000A7FAB085B9B24E4801F0A2FA641CF0858A
:102DF000042CD9DB5FF0000405EB44062146B289C0
:102E000048A001F027FBB28B21464BA001F022FB2A
:102E1000B6F92C2021464DA001F01CFB641C082CA7
:102E2000EADB032000F0CEF93C4920220C310F46AA
:102E3000032000F0D5F900F003FA042000F0C2F9F5
:102E4000364920221C310E46042000F0C9F900F05A
:102E5000F7F9052000F0B6F9304920222C310C4654
:102E6000052000F0BDF900F0EBF9202239460320DF
:102E700000F07CF920223146042000F077F920226E
:102E80002146052000F072F95FF0000405EB4406CE
:102E90002146B28933A001F0DDFAB28B214635A07C
:102EA00001F0D8FAB6F92C20214636A001F0D2FA6A
:102EB000641C082CEADB37A001F0CCFA3949012068
:102EC0004870BDE8F0410F21154801F059BA70B5BE
:102ED000354D0024A1B2124801F068FA002805EB34
:102EE000C400818855F8340008D0FEF710F804F1CA
:102EF000100081B20A4801F043FA07E0FEF709F832
:102F000004F1100081B2064801F024FA641C102C70
:102F1000E0DB2449FF20087070BD0000180100208C
:102F2000E80500202D2D63494F2E4D61785B256407
:102F30005D203D2025640A002D2D63494F2E4D69EB
:102F40006E5B25645D203D2025640A002D2D6349BC
:102F50004F2E537465705B25645D203D2025640A07
:102F60000A0000004D61785B25645D203D202564EA
:102F70000A0000004D696E5B25645D203D202564DC
:102F80000A000000537465705B25645D203D2025B8
:102F9000640A0A00B2CECAFDCFC2D4D8CDEAC1CBF2
:102FA0000A000000EC0000201800002040EA0103A5
:102FB0009B0703D009E008C9121F08C0042AFAD2EF
:102FC00003E011F8013B00F8013B521EF9D27047B3
:102FD00070B5054C054D03E0206820448047241D52
:102FE000AC42F9D170BD0000204800082848000814
:102FF0002DE9F05F0546002092469B46884606462E
:10300000814640241BE0284641464746224600F0C0
:1030100042F853465A46C01A914110D311461846F9
:10302000224600F029F82D1A67EB01084F46224688
:103030000120002100F020F817EB00094E41201E6E
:10304000A4F10104DFDC484631462A464346BDE888
:10305000F09F0000064C074D06E0E06840F00103D9
:1030600094E8070098471034AC42F6D3FDF774F8A3
:103070000048000820480008202A04DB203A00FA13
:1030800002F1002070479140C2F1200320FA03F3BF
:10309000194390407047202A04DB203A21FA02F0BD
:1030A0000021704721FA02F3D040C2F12002914082
:1030B000084319467047000010B50420FEF7BEFC17
:1030C000012805D0BDE810404FF48030FEF736BD32
:1030D0004FF480720849012000F082F8FEF779F978
:1030E000BFF34F8F05480168054A01F4E0611143C1
:1030F0000160BFF34F8FFEE7C00300200CED00E03E
:103100000400FA0502480169491C0161704700008A
:10311000F000002004490969814201D3081A704770
:10312000C043084470470000F00000200B48002115
:103130000C4A01610A480068B0FBF2F0401EB0F191
:10314000807F09D24FF0E0225061074BF0201870C9
:103150009161072010617047FEE70000F000002039
:1031600064470008A086010023ED00E02DE9F0414E
:103170000D466AB14FF480718A4200D90A46C402F2
:103180000D480E4E0E4F4461D01C800800230AE00B
:103190000020BDE8F08100BF04EB8301895947F8A6
:1031A00023105B1C9BB28342F6D305492846FFF7E8
:1031B000FDFE0120EDE70000F00000200080000887
:1031C000E804002010B50446FEF7F7F8034800EBCA
:1031D000C420FEF72DF9012010BD0000008000087A
:1031E0002DE9F0411400054612D04FF4807084425E
:1031F00000D9044622460F48FFF7D8FEE8020E4DDC
:10320000E41CA6080024DFF82C800C4F68610DE058
:103210000020BDE8F08100BF686958F8241000EB79
:1032200084003844FEF7A3F9641CA4B2B442F3D37B
:103230000120EEE7E8040020F000002000800008F4
:10324000FEF7C7B82DE9F041804686B0012109207C
:10325000FEF73EF801214806FEF743F84FF4807070
:10326000ADF80C0048208DF80F003B4C03258DF87D
:103270000E5003A92046FDF7DCFD6015ADF80C00EB
:1032800018208DF80F008DF80E5003A92046FDF789
:10329000D0FD01214FF4EA10FDF75AFE14208DF8FD
:1032A000100000248DF811408DF8124001278DF890
:1032B000137004A8FEF7ABFA284E3046FDF7EEF87F
:1032C0006846FDF7D3F98DF806408DF807708DF844
:1032D00002408DF8045002948DF803408DF805509B
:1032E0004146B8F1640F2AD009DC052930D00A29FB
:1032F0002BD0142927D0B8F1320F0FD121E07D292E
:103300001BD0FA2917D0B1F5FA7F04D0B8F57A7F2F
:1033100004D1042000E00820ADF8000069463046E2
:10332000FDF7CFF8012202213046FDF779FB06B008
:103330000120BDE8F0811020EEE72020ECE72820F6
:10334000EAE75020E8E7C820E6E74FF4C870E3E773
:103350004FF44870E0E70000000C014000640040BA
:103360001FB501238DF80A000020ADF808008DF884
:103370000B00042000EBC100010CADF800108DF82B
:103380000C30ADF80200202A00D92022D21CD0B285
:10339000102803D91038C2B2102000E000224FF6E6
:1033A000FF7101FA02F28140ADF8042041F00400FF
:1033B000ADF806008DF80D306846FDF7F6F804B05C
:1033C000012010BD2DE9F041804686B00121092081
:1033D000FDF77EFF01218806FDF783FF4FF4805043
:1033E000ADF80C0048208DF80F00384C03258DF8FF
:1033F0000E5003A92046FDF71CFD6014ADF80C002B
:1034000018208DF80F008DF80E5003A92046FDF707
:1034100010FD41208DF8100000248DF81140012787
:103420008DF812708DF8137004A8FEF7F0F9284E8D
:103430003046FDF733F86846FDF718F98DF8064079
:103440008DF807708DF802408DF8045002948DF8C5
:1034500003408DF805504146B8F1640F2AD009DCCD
:10346000052930D00A292BD0142927D0B8F1320FE2
:103470000FD121E07D291BD0FA2917D0B1F5FA7FB1
:1034800004D0B8F57A7F04D1042000E00820ADF81C
:10349000000069463046FDF714F80122102130463D
:1034A000FDF7BEFA06B00120BDE8F0811020EEE77E
:1034B0002020ECE72820EAE75020E8E7C820E6E7EC
:1034C0004FF4C870E3E74FF44870E0E7000C0140A8
:1034D000006800401FB501238DF80A00ADF80830E0
:1034E00000208DF80B00042000EBC100010CADF8AA
:1034F00000108DF80C30ADF80200202A00D92022EF
:10350000D21CD0B2102803D91038C2B2102000E06B
:1035100000224FF6FF7101FA02F48140ADF8044039
:1035200041F00400ADF806008DF80D306846FDF757
:103530003CF804B0012010BD10B50446C878082836
:103540001ED8104A0420107200205072C878907261
:10355000486850600B48CA7808310B30FFF726FDE9
:10356000012C02D0022C03D008E00649064801E0F5
:1035700004490648FDF7D4F8042801D0012010BD05
:10358000002010BDC004002000640040006800401E
:1035900070B50C460546022801D9002070BD012DEA
:1035A00002D0022D04D008E0104A0021104802E0A9
:1035B0000E4A01210F48FDF750F90C480021827A8C
:1035C000082A01D9E170E8E7257001226270A17034
:1035D000416821F060416160827A0449E2700B31F8
:1035E00004F10800FFF7E2FC012070BDD4040020C4
:1035F0000064004000680040FDF703BD10B500EB1B
:103600008000C0F3D90445F25550FDF7F1FC0420C9
:10361000FDF7F1FC2046FDF7F1FCFDF7F2FCFDF7AC
:10362000F5FC012010BD002101E0491C89B2814256
:10363000FBD370470A094280822A01D300207047D9
:10364000534201EB03118180044830F8120001223B
:103650008A401040F3D0012070470000BC020020D7
:1036600010B50A094280822A01D3002010BD5342BE
:1036700001EB03118180054801248C4030F81230A1
:10368000A34320F81230012010BD0000B801002033
:1036900010B50A094280822A01D3002010BD53428E
:1036A00001EB03118180054801248C4030F8123071
:1036B000234320F81230012010BD0000B801002083
:1036C000024909690160012070470000F0000020F4
:1036D000024909690160012070470000F0000020E4
:1036E0000068FFF717BD00000149096901607047D4
:1036F000F000002090F89803AE2801D00020704719
:1037000001EB810042F2107101EB40000149088297
:1037100001207047B801002070B50446B0F8B2022D
:10372000B4F8AE12884208D394F8C222904275D3FE
:1037300094F8C3321A44824270D90022884209D2D6
:1037400004EB4000A0F8C622B4F8B20204EB40003B
:10375000A0F8E222B4F8B202012104EB001080F8D4
:103760005010B4F8B20204EB001080F85110B4F815
:10377000B20204EB001080F85220B4F8B2320820F4
:1037800004EB031383F85300B4F8B202236A034432
:1037900004EB0010436584F89023B4F8B2026A4B3E
:1037A000D0B10A2201281AD094F8B752ADB394F8D8
:1037B000B662B0424AD3861BAE4247DA30B26D1EC3
:1037C000A4F88C03A84204D194F8B8526D0084F890
:1037D000035302EB80008AE0A4F88E231FE05B4DC8
:1037E000206BEE683060188AB0FBF2F04FF47A621A
:1037F000D881904200D9DA81D8894FF6FF7202EA67
:103800000010D8816A68B2F90020A2F548555B3DE6
:1038100001D1401CD881042069E017E092E084F8CF
:103820009013B4F8B202B4F88E1304EB001003EB5B
:10383000410190F853205830FFF7B8FBB4F8B202BA
:1038400004EB4000B0F8501299B36DE094F8BA520E
:103850009DB194F8B962B0420FD3861BAE420CDA28
:1038600030B26D1EA4F88C03A84204D194F8BB5268
:103870006D0084F80353657817E094F8BD52CDB11C
:1038800094F8BC62B04215D3861BAE4212DA30B255
:103890006D1EA4F88C03A84204D194F8BE526D00AA
:1038A00084F803536578A678354402EB80002844F9
:1038B0001DE036E094F8C022E2B194F8BF52A8426D
:1038C00018D3451B954215DA28B2521EA4F88C0372
:1038D000904204D194F8C122520084F80323627804
:1038E000A5782A44E57805EB800010440A30A4F856
:1038F0008E0394E794F8C322F2B194F8C252A8421E
:103900001AD3401B904217DA00B2521EA4F88C035F
:10391000904204D194F8C422520084F803233A223E
:1039200057E7216B491C2163B0F85012B1F57A4F6B
:1039300002D2491CA0F85012606B401C6063A06B5F
:10394000401CA063002070BDB8010020F0000020E2
:103950002DE9F047044690F89803AE281FD1BA48E5
:10396000FFF7BEFE002531287ED3B748B649183888
:1039700000690860B4F8B0024FF47A41401C80B28C
:10398000A4F8B002884201D9A4F8B012B4F89A039E
:1039900041F27071884203D2401CA4F89A0350E1AE
:1039A000606C44F62061884207D96564E06BE5638A
:1039B000A064206C2564E06401E0401C6064B4F8FD
:1039C0001003B4F8AE12884202D3A4F8105301E0F9
:1039D000022816D2B4F8100340F6A17204EB40019D
:1039E000B1F8C61291421BD9A4F8B2022046FFF7E3
:1039F00093FEB4F8100398B94FF4FA60A4F8C80223
:103A00000EE0B4F8921259B104EB4002B2F8C622AB
:103A1000B1EB520F04D2A4F8B2022046FFF77CFEAD
:103A2000B4F89412002941D0B4F8100304EB40021A
:103A3000B2F8E222B1EB520F38D294F8BD12834EA5
:103A40000423A1B394F8BC22904231D3821A8A4253
:103A50002EDAD2B284F89C23491EA4F812338A428B
:103A600005D194F8BE1200E0A0E0A4F8121361782A
:103A7000A37819440A2303EB82021144CBB284F8E1
:103A80009D33A4F81453B4F812730BE05A1836F8A7
:103A900012C004EB4202B2F81623944551D1491CDE
:103AA000A4F81413B4F81413B942EFD363E0FFE79A
:103AB00094F8C012F1B394F8BF2290425BD3821AFB
:103AC0008A4258DAD2B284F89C23491EA4F81233F1
:103AD0008A4203D194F8C112A4F812136178A37832
:103AE0001944E37803EB820211440A31C9B284F825
:103AF0009D13A4F814538946B4F8123337E000BF7D
:103B000009EB0102A4F89E5304EB420836F8127048
:103B1000B8F816C3674503D9A7EB0C07A4F89E7342
:103B2000B8F8167336F81220974202D9BA1AA4F8D8
:103B30009E2300E01FE0B4F89E23B4F89672BA42C8
:103B400012D9A4F8B2022046FFF7E6FDB4F812033A
:103B5000420094F89D0306EB400104EB400000F2A4
:103B60001630FFF723FA06E0491CA4F81413B4F842
:103B700014139942C4D3B4F81003B4F8AE2204EB82
:103B80004000B0F8C6121144A0F8C612B4F81003F1
:103B9000B4F8AE2204EB4000B0F8E2121144A0F8F1
:103BA000E212B4F81003401CA4F8100394F899032F
:103BB000202801D384F8995394F8990304EB400129
:103BC000B1F85012C1B304EB0010226A416D891A9A
:103BD000A16202D1012180F85F1094F8990304EBEF
:103BE000001150310120FFF7A7FC48B194F8990368
:103BF00004EB4000A0F850526563206C401C206428
:103C0000A06A30B994F89913022004EB011181F8ED
:103C10005F0094F8990304EB001150310220FFF784
:103C20008BFC48B194F8990304EB4000A0F8505283
:103C30006563206C401C206494F89903401C84F850
:103C400099030020BDE8F08708010020B80100209A
:103C50002DE9F04704460020A4F8B002FE4984F89C
:103C60009903FE4A01F108033226C2E902132178C2
:103C700019715168FA270D7C84F899525D71D880CA
:103C8000A4F88A03A4F89A03B1F904C04FF47A7532
:103C90000A23AC4501DB8D802EE04FF4FA78C44551
:103CA00002DBA1F8048027E0BCF1FA0F01DB8F8072
:103CB00022E0BCF17D0F02DB4FF07D0C18E0BCF17F
:103CC000640F02DB4FF0640C12E0BCF1320F12DA29
:103CD000BCF1140F02DB4FF0140C09E0BCF10A0F29
:103CE00001DB8B8008E0BCF1050F04DB4FF0050C15
:103CF000A1F804C000E08E80B1F804C0A4F890C21E
:103D0000B1F906C04FF00108BCF1620F04DD4FF0BD
:103D1000620CA1F806C004E0BCF1010F01DAA1F8C1
:103D2000068091F806C084F898C2B4F890C2B5FB3A
:103D3000FCFCBCF1FA0F02D94FF0FA0C04E0BCF124
:103D4000020F01D24FF0020C9146B1F90A2042B1A4
:103D5000FA2A00DD4F81B1F90A20624501DAA1F8A3
:103D60000AC04A89A4F89422B1F908206AB140F641
:103D7000340C624501DDA1F808C0B4F89422B1F911
:103D800008C00A32944500DA0A810A89A4F892220E
:103D9000B4F894224FF0020C52B1B1F90C203AB1B0
:103DA000FA2A01DD8F8103E0022A01DAA1F80CC0B2
:103DB0008F89A4F89672B1F90E704A46FA2F01DD88
:103DC000CE8103E0012F01DAA1F80E8011780129DC
:103DD00004D1A4F89052632184F8981261794FF0CD
:103DE0004808092902D20921617103E0482901D953
:103DF00084F805806178A57826792944E5783544EA
:103E00002944302903D96070A070E0702071D9F87E
:103E1000081065780D70A2784A70E2788A7022796D
:103E2000CA7062790A71B4F89222B2FBF3F24A7155
:103E300094F894228A71C8716178E1B3A371A27970
:103E40001201A4F89A22A278B2B301F10A032372F4
:103E5000E37893B38D180A35E571E5792D01A4F85F
:103E60009C52257955B38E1803F10A073E446672B9
:103E7000E06220636063A063E06320646064A06428
:103E80008E185F193744E064A4F8AA72A4F8AC62F3
:103E900084F8B60284F8B90284F8BC02CE1C84F817
:103EA000BF02B60884F8C20284F8B76211F00307B3
:103EB00084F8B87203E006E007E008E009E04FF09C
:103EC000040108D009E0A071B9E72072C0E7E071F1
:103ED000C3E76072CCE784F8B8120EB184F8B6C2BA
:103EE000D71CBF0884F8BA7212F0030284F8BB2210
:103EF00001D184F8BB1217B1B21C84F8B922DA1CC4
:103F0000920884F8BD2213F0030384F8BE3201D175
:103F100084F8BE121AB1F3199B1C84F8BC32EB1C56
:103F20009B0884F8C03215F0030584F8C15201D112
:103F300084F8C1122BB1F51902F1020C654484F822
:103F4000BF526579482D01D984F80580657905F15E
:103F5000030C4FEA9C0C84F8C3C215F0030584F8E7
:103F6000C45201D184F8C4120E25BCF1000F01D057
:103F700084F8C252F1191A441144891CA4F8AE12F3
:103F80000E2904D9A4F8AE520020BDE8F087A4F8A9
:103F90009E024FF6FF7100BFB4F89E2202EB82032F
:103FA00004EB420201EA4303A2F8C632B4F89E22AF
:103FB00001EA420304EB4202A2F8E232B4F89E2284
:103FC000521C92B2A4F89E220E2AE5D3A4F89E02B7
:103FD000B4F89E1204EB4101A1F85002B4F89E120D
:103FE000491C89B2A4F89E122029F1D348F6AB10DF
:103FF000E0601B48A0611A481F30E061194894F83E
:10400000981200EB411101F11F00C4E9041001F501
:10401000805100F58050C4E9081047F23050FFF796
:1040200002FBB4F89002FFF70DF9B4F89002FFF725
:10403000C9F905220220A169FFF792F905220020A3
:104040002169FFF78DF905221020A169FFF742FAD7
:1040500005220E20216907E0B8010020F0000020B1
:10406000806C351100603511FFF734FA0449D9F836
:1040700010000860AE2084F89803012085E7000056
:10408000080100202DE9F041044690F898030B4602
:10409000AE2813D104F540711846FFF779FA0028CD
:1040A0000DD0E06A401CE062E06B401CE06394F8D5
:1040B0000103012802D194F8020310B10020BDE8E9
:1040C000F081A369D4F804030021012204F54275AC
:1040D000984230D3E669B0422DD8C01A80B2A4F815
:1040E000B40294F80333002B24D0A4F8961384F878
:1040F000941302281ED3801E02281BDA00B2A4F8F3
:10410000B012A4F89203012804D1082B02D9082187
:1041100084F803134FF6FF7101EA8000A4F89603B8
:10412000774984F8942301EB400094F8032329464F
:10413000FEF73CFFE2E0236998427CD36669B04217
:1041400079D8C01A80B2A4F8B202A4F8B40294F8E4
:104150000333002B70D0A4F8961384F8941394F8CA
:10416000B7620A27DEB194F8B6C2604517D3A0EB58
:104170000C0CB44513DAA4F8B0120FFA8CF1761EC9
:10418000A4F89213B14207D194F8B862B3EB460F8A
:1041900002D9730084F8033307EB81013BE094F804
:1041A000BA62EEB194F8B9C2604519D3A0EB0C0C19
:1041B000B44515DAA4F8B0120FFA8CF1761EA4F803
:1041C0009213B14207D194F8BB62B3EB460F02D908
:1041D000730084F80333637807EB810119441AE014
:1041E00094F8C312D9B194F8C262B04217D3861BB7
:1041F0008E4214DA36B2491EA4F892638E4207D179
:1042000094F8C412B3EB410F02D9490084F80313A8
:104210003A2101EB8601A4F8961384F894233949D6
:104220004968B1F90010A1F548535B3B4AD194F8B5
:10423000BD1201B301E061E05DE094F8BC32984248
:1042400019D3C31A8B4216DA18B2491EA4F8920386
:10425000884209D194F8033394F8BE12B3EB410FAE
:1042600002D9490084F803136178A37807EB800032
:104270001944084421E094F8C01219B394F8BF32ED
:1042800098421FD3C01A88421CDA00B2491EA4F813
:104290009203884209D194F8033394F8C112B3EB26
:1042A000410F02D9490084F803136178A3781944B7
:1042B000E37803EB800008440A30A4F8960384F8FE
:1042C000942303E094F89403012814D1B4F89603DE
:1042D0000D4994F8032301EB40002946FEF766FEE2
:1042E0000749B4F89603103101EB400094F803231A
:1042F0002946FEF75BFE2046FFF70EFA0120DEE6B8
:10430000A8010020F0000020BC02002090F89833A3
:10431000AE2B02D103798B4201D800207047407A3E
:104320000844024921F8102001207047B8010020FC
:1043300090F89823AE2A02D182788A4201D80020D0
:104340007047007A0844024931F9100070470000B4
:10435000BC02002000B590F89823AE2A03D1C278A1
:10436000B1EB021F01D3002000BDB0F89C0208444D
:1043700081B20248FFF774F9012000BD0C01002052
:1043800000B590F89823AE2A03D1C278B1EB021F92
:1043900001D3002000BDB0F89C02084481B202485D
:1043A000FFF776F9012000BD0C01002090F898235A
:1043B000AE2A03D14278B1EB021F01D3002070472F
:1043C000B0F89A02084481B20148FFF733B90000FF
:1043D0000C010020017A7F2901D0002070470B4991
:1043E00009680A040A4907D5D0E900329A4201D384
:1043F000002008E0521C02E042681AB1521E4260DE
:104400000878704701200870FAE7000008080140AA
:10441000F000002038B504460C4800250121057045
:104420000420FCF755FF4FF40040ADF80000482091
:104430008DF8030069460648FCF7FBFC42F2107059
:10444000C4E900057F202072012038BDF000002063
:10445000000801400FB4054B10B503A9044A0298A7
:1044600000F020F810BC5DF814FB000023280008C1
:104470001401002002E008C8121F08C1002AFAD166
:1044800070477047002001E001C1121F002AFBD1D4
:10449000704700000248A0F11801096901607047E7
:1044A000080100202DE9FF4F8DB09B460F460446C2
:1044B000002606E025280BD05A460F999047641C29
:1044C000761C20780028F5D111B03046BDE8F08F79
:1044D0000025A8460122984900E0054314F8013F51
:1044E000203B02FA03F00842F7D120782E2817D19A
:1044F00014F8010F45F004052A280ED06FF02F02A2
:104500002078A0F1300109290AD808EB880102EBD4
:10451000410100EB0108641CF2E757F8048B641CAE
:1045200020786C280DD004DC4C2812D06A2811D1D8
:1045300004E074280DD07A280CD10AE045F4001567
:1045400007E0617845F48015814202D1641C05F5CD
:104550008015641C2078692844D008DC0028B3D07A
:10456000582867D063280FD0642808D13AE0702813
:1045700065D0732812D075285AD078285AD05A4658
:104580000F999047761CD5E017F8040B8DF80000C2
:1045900000208DF80100E946012003E057F8049B54
:1045A0004FF0FF3069074FF0000501D40AE06D1CA1
:1045B00045450DDA8542FADB19F805100029F6D1D8
:1045C00006E06D1C8542FCDB19F805100029F8D1C6
:1045D0002E4404E019F8010B5A460F9990476D1EBE
:1045E000F8D2A7E00A200021CDE90801C5F3025066
:1045F00002280CD001CFC117021E71F100020CDAA3
:104600000023D0EB030063EB01012D2208E0FF1D26
:1046100027F00707F7E80201EEE72A0504D52B2269
:104620008DF8282001223CE0EA073AD02022F7E763
:104630000A2000E010200021CDE9080107E0102049
:10464000002145F00405CDE908014FF00808C5F345
:104650000250022810D001CF00214FF0000A2A0793
:1046600020D52278702A0DD0DDE908C38CF0100C1B
:104670005CEA030C0CD015E0FF1D27F00707F7E8F4
:104680000201EAE740228DF828204FF0010A0CE0F1
:1046900050EA010306D030238DF828308DF8292008
:1046A000022292462278582A04D024A20DF1200931
:1046B0000B9209E026A2F9E7DDE90823FEF798FC52
:1046C0000B9B9B5C09F8013D50EA0102F4D1ADEB74
:1046D000090020300890680701D44FF001080899BC
:1046E000884503DD0898A8EB000000E00020804624
:1046F000002506E00AA85A46405D0F9990476D1CB8
:10470000761C5545F6DB04E030205A460F99904759
:10471000761CB8F10001A8F10108F5DC05E019F8F4
:10472000010B5A460F999047761C0899481E08902D
:104730000029F4DC641CC4E609280100303132335E
:1047400034353637383961626364656600000000CD
:1047500030313233343536373839414243444546B7
:104760000000000000A24A04B400B400B400B40089
:10477000B400B400B400B400500050005000500029
:1047800050005000500050000A000A000A000A00C1
:104790000A000A000A000A00B5D7B5F7C9FDBDB581
:1047A00000000000C1A2D6F9C9FDBDB5000000009F
:1047B000CDC6C1EFC0ADBCDC00000000B2E0BBA4C0
:1047C000C9ECCBF500000000CCA7B5D7C9ECCBF500
:1047D00000000000C6BDBAE2C9ECCBF50000000045
:1047E000D2BBBCB6BBA4B0EFC9ECCBF50000000057
:1047F000B6FEBCB6BBA4B0EFC9ECCBF50000000020
:104800002848000800000020180100007444000837
:104810004049000818010020700C00008444000882
:1048200075D7FFFF71FCFFFF0204060800000000BF
:104830000102030401020304060708090000000046
:1048400000140140010000000014014002000000BB
:1048500000140140040000000014014008000000A2
:1048600000140140800000000014014040000000DE
:10487000001401402000000000140140100000005E
:104880000018014000010000001801400002000073
:10489000001801400004000000180140000800005A
:1048A0000018014000800000001801400040000096
:1048B0000018014000200000001801400010000016
:1048C000984700080E0F0000C84700080C0DFFFFB6
:1048D000F04700080A0BFFFFE04700080809020143
:1048E000BC4700080405FFFFD44700080405060381
:1048F000B047000803020402A447000800010000BA
:10490000030204020702060107010401030100007B
:1049100000000000FF000000000000000000000098
:104920000000000000000000000000000000000087
:104930000000000000000000000000000000000077
:04000005080001519D
:00000001FF
